:020000040800F2
:10100000A8230020451100084D1100084F110008C9
:10101000511100085311000855110008000000008C
:101020000000000000000000000000005711000850
:1010300059110008000000005B1100085D11000854
:101040005F1100085F1100085F1100085F110008C0
:10105000F92600085F1100085F1100085F11000801
:101060005F1100085F1100085F1100085F110008A0
:101070005F1100085F1100085F1100085F11000890
:101080005F1100085F1100085F1100085F11000880
:101090005F1100085F1100085F1100085F11000870
:1010A0005F110008354200085F1100085F11000859
:1010B0005F1100085F1100085F1100085F11000850
:1010C0005F1100085F1100085F1100085F11000840
:1010D0005F1100085F1100083943000875430008DC
:1010E0005F1100085F1100085F1100085F11000820
:1010F0005F1100085F1100085F1100085F11000810
:101100005F1100085F1100085F1100085F110008FF
:101110005F1100085F1100085F1100085F110008EF
:101120005F1100085F1100085F1100085F110008DF
:10113000DFF80CD000F0FAFF00480047F56C00081B
:10114000A82300200648804706480047FEE7FEE740
:10115000FEE7FEE7FEE7FEE7FEE7FEE7FEE7FEE767
:10116000E1410008311100082DE9F0410024061B7F
:10117000254671F1000605DA01240027D0EB0700AF
:1011800067EB0101161E73F1000605DA0027D2EBAA
:101190000702012567EB030300F0E5FC86460E46D7
:1011A00017469C46AC4204D00025D0EB050E65EBFB
:1011B000010624B10020D2EB000760EB030C70465F
:1011C00031463A466346BDE8F081202A04DB203AE6
:1011D00000FA02F1002070479140C2F1200320FA8A
:1011E00003F319439040704740EA01039B0703D083
:1011F00009E008C9121F08C0042AFAD203E011F856
:10120000013B00F8013B521EF9D27047D2B201E017
:1012100000F8012B491EFBD270470022F6E710B5FB
:1012200013460A4604461946FFF7F0FF204610BD54
:10123000421E12F8013F002BFBD111F8013B02F8CE
:10124000013B002BF9D1704730B505462A460B46C5
:1012500012F8010B13F8014B08B1A042F8D01CB1F1
:10126000002802D06D1CF1E7284630BD10B50446B9
:1012700004E00B7800F8013B03B1491C521EF8D280
:10128000204610BDCAB2401E10F8011F8A4202D08B
:101290000029F9D100207047421C10F8011B0029D9
:1012A000FBD1801A704710B5002200E0521C835C0D
:1012B0008C5CA34201D1002BF8D1D8B2E1B2401A24
:1012C00010BD30B504460020034600E05B1C93428D
:1012D00003D2E05CCD5C401BF8D030BD034611F872
:1012E000012B00F8012B002AF9D1184670470000A5
:1012F0000FB400B58DB010A909900B9000914FF07C
:10130000FF300A9000200C90054806900548079091
:101310006A4609A80F9900F08BFC0DB05DF814FB2C
:101320004D1C00086B1C00082DE9FF4F1C4681B0C6
:101330000021D4E9016791464FF0FF358A4688467F
:10134000A1696D1C02988847216A83468847002856
:10135000F6D1BBF1FF3F0CD026F4C066002F1ADD9A
:10136000700615D5BBF12B0F0AD0BBF12D0F0FD195
:1013700004E04FF0FF3005B0BDE8F08F46F4806622
:10138000A1696D1C029888477F1E8346002F02DDED
:10139000BBF1300F03D0B9F1000F2AD025E0A169CD
:1013A0006D1C46F400767F1E029888478346002F06
:1013B00005DDBBF1780F06D0BBF1580F03D0B9F1B2
:1013C000000F10D011E0B9F1000F02D0B9F1100FE9
:1013D0000BD1A1696D1C26F400767F1E0298884708
:1013E0008346102000E0082081464FEAE970009013
:1013F00017E00A20F8E74346AAFB092803FB098007
:10140000DDF800C07F1E0AFB0C0112EB0B0A41EB5A
:10141000EB78A16946F4007605F10105029888474A
:101420008346002F06DD4946584600F0ECFB5FEA94
:10143000000BE0D5E16902988847B00502D46FF04F
:10144000010098E7F00718D1700610D570055146D5
:1014500005D50023D1EB030163EB080200E042460F
:101460002068031D23600068C0E9001205E02068C1
:10147000011D21600068C0E900A828467BE72DE92E
:10148000FF5F1D464FF0FF3BD5E9014691465F46A1
:101490004FF00008A9697F1C01988847296A824695
:1014A00088470028F6D1BAF1FF3F0CD024F4C0647D
:1014B000002E19DD600614D5BAF12B0F09D0BAF150
:1014C0002D0F0ED103E0584604B0BDE8F09F44F460
:1014D0008064A9697F1C01988847761E8246002E89
:1014E00002DDBAF1300F03D0B9F1000F26D032E09F
:1014F000A969761E44F400747F1C019888478246CF
:10150000002E05DDBAF1780F06D0BAF1580F03D0DE
:10151000B9F1000F10D01EE0B9F1000F02D0B9F1FF
:10152000100F18D1A969761E24F400747F1C01984D
:1015300088478246102002E0082000E00A20814609
:1015400009E008FB0908A969761E44F400747F1CB1
:10155000019888478246002E05DD4946504600F036
:1015600052FB0028EDDAE96901988847A00502D40A
:101570006FF00100A8E7E00725D1600613D56005EC
:1015800002D5C8F1000000E0404629680A1D2A6023
:101590000968220501D5087015E0220701D50880E9
:1015A00011E008600FE02868011D2960006821052E
:1015B00002D580F8008006E0210702D5A0F800805F
:1015C00001E0C0F8008038467EE700002DE9FF4FBB
:1015D000087881B09946FF2805D0491C2D2804D0F1
:1015E0000024002308E000230BE00124F9E703EBCB
:1015F000830300EB4303491C0878FF28F7D104B1AB
:101600005B4200200090147801462D2C01D02B2C39
:1016100004D1521C2D2C12D00024009400251678E1
:10162000FF2E0ED00A24A0FB04C801FB0481002772
:1016300000FB0711521C16EB0C006941EFE7012477
:10164000EBE7994450EA01020ED00024AA4D264649
:10165000DFF8A88200F02DFD82468B46B9F100002C
:1016600009DAC9F100071BE001980021C0E9001167
:1016700005B0BDE8F08F074612E0F80707D0224614
:101680002B463046414600F033FC0646884622464B
:101690002B461046194600F02BFC04460D467F10E1
:1016A000002FEAD1B9F1000F324643465046594661
:1016B00002DA00F08FFC01E000F01AFC009A0AB197
:1016C00081F00041019AC2E90001D1E72DE9FF4F05
:1016D0001F468DB0D7E901464FF0FF382E20454612
:1016E0004FF000090B90B9696D1C0E988847396A54
:1016F000824688470028F6D1BAF1FF3F0AD024F489
:10170000D064002E11DDBAF12B0F08D0BAF12D0FE5
:101710000BD102E0404611B0ABE744F48064B969F4
:101720006D1C0E9888478246761E6946600501D575
:101730002D2000E02B208DF8000001F1010B0DF1B0
:10174000200809E0B9696D1C0E98884782460F98F9
:1017500044F40074761E0560002E02DDBAF1300FED
:10176000F0D00B998A453ED144F0800406E00F99F1
:10177000681CA9F1010944F400740860B9696D1C82
:10178000761E0E98884782463028F0D02BE00B99C1
:101790008A4505D1200603D444F08004761E18E063
:1017A000504603F009FC08B30DF11301761E44F412
:1017B00000748B4508D2AAF130000BF8010B20060B
:1017C00007D5A9F1010003E0200602D409F10100C8
:1017D0008146A00502D50F99681C0860B9696D1C87
:1017E0000E9888478246002ED1DC53E0002E51DD52
:1017F000BAF1650F02D0BAF1450F4BD1A00549D51A
:10180000B9696D1C24F44074761E0E988847824690
:10181000002E0CDD2B2804D0BAF12D0F07D144F493
:101820008074B9696D1C0E9888478246761EE00563
:1018300001D52D2100E02B2108F8011BCDF82C80CB
:1018400021E00DF12901761E44F4007488450CD284
:10185000AAF1300010F0FF0088F8000002D10B99C7
:10186000884509D908F1010806E0E00501D52448BA
:1018700001E042F20F708146B9696D1C0E988847ED
:1018800082460F980560002E04DD504603F094FB5D
:101890000028D6D1F9690E988847FF208BF8000000
:1018A00088F800000020069007904B466A4608A979
:1018B00006A8FFF78BFEA00502D46FF001002AE70F
:1018C00014F0240F0AD0E00714D1DDE906123868BD
:1018D000031D3B600068C0E900120BE0DDE9060172
:1018E00000F00FF90146E00704D13868021D3A60A4
:1018F0000068016028460EE7000024400000F03F29
:10190000F1D8FFFF2DE9F04791460F468046044687
:10191000002614F8015B2DB100F068F90068405D05
:10192000C007F6D12B2D02D02D2D18D0641E4A46AB
:101930003946204600F0AAF927B13968A14201D101
:10194000C7F8008071054FF002040BD54042002813
:1019500003DD03F009FA0460A007BDE8F08746F450
:101960008066E4E70028F8DA03F0FEF904606FF01F
:101970000040F2E770B5064603F0F6F90468054644
:101980000A2200213046FFF7BDFF2C6070BD2DE913
:10199000FE4F804681EA0300C00F0C46009021F004
:1019A000004123F00045B8EB0200A94105D24046B2
:1019B000214690461C460B46024623F00040104349
:1019C00047D0270DC7F30A00C3F30A510290401A0B
:1019D000019040286BDAC3F3130040F4801B009899
:1019E000924620B10023D2EB030A63EB0B0B019864
:1019F0005946C0F140025046FFF7E7FB06460D4648
:101A000050465946019A00F0DFF810EB080061419A
:101A1000002487EA115284EAE7731A4340D0009AFF
:101A200062B3019A012A4FEA075215DC001B61EBF1
:101A300002014FF0004202EA0752CDE90042001CC9
:101A400041F5801132462B4600F004FA03B0BDE8A0
:101A5000F08F40462146F9E7001B61EB0201001CB4
:101A600041F5801300185B412018A2F5001747EBE1
:101A7000030140EAD570B6196D4111E06D084FEAD7
:101A8000360645EAC0754FEA0752001B61EB0201BA
:101A9000001C41F5801149084FEA300000195141FE
:101AA00032462B4603B0BDE8F04F00F0C4B90098B1
:101AB000012240000023D0EB020263EBE0730098A8
:101AC00021464FEAE074B8EB000061EB0401E9E75E
:101AD00083F000435BE781F0004158E700F00042EB
:101AE00030F000400AD0C10D01F56071C0F316005E
:101AF00042EA0151C20840071143704700200146E5
:101B0000704701F0004330B421F0004150EA010277
:101B100006D00A0DA2F56072C1F31301002A02DC9F
:101B200030BC00207047440F44EAC104C100E018F3
:101B300030BC00EBC25000F047B930B50B4601464F
:101B400000202022012409E021FA02F59D4205D35C
:101B500003FA02F5491B04FA02F52844151EA2F106
:101B60000102F1DC30BD2DE9F05F05460020924610
:101B70009B4688460646814640241BE0284641464F
:101B80004746224600F0E4FA53465A46C01A9141AD
:101B900010D3114618462246FFF717FB2D1A67EBA4
:101BA00001084F46224601200021FFF70EFB17EBEC
:101BB00000094E41201EA4F10104DFDC48463146F5
:101BC0002A464346BDE8F09F202A06DBCB17203A81
:101BD00041FA02F043EAE07306E041FA02F3D04032
:101BE000C2F12002914008431946704700487047EF
:101BF000D08D000810B50446FFF7F8FF0068005DBF
:101C000000F0010010BD3A2800D2303820F0200248
:101C1000412A01D3A2F13700884201D34FF0FF30AF
:101C2000704700000268114413780160184670473D
:101C3000D1600449516104491162002111611146CA
:101C400000F096BA251C0008F51B0008426842B156
:101C5000016811F8013B23B1521EC0E90012184679
:101C600070470121C160881E704742685AB1C3683D
:101C7000016843B983688B4205D0491E521CC0E9F4
:101C80000012002070474FF0FF3070472DE9F05FE1
:101C900082460078002715468B460AF10104B946B2
:101CA000302801D09DB113E014F8010B01277828EA
:101CB00003D0582801D045B10AE00DB1102D07D14D
:101CC0000027102514F8010B02E0082500E00A2582
:101CD0000026B0460EE005FB080005FB06F10127D3
:101CE00001EB10461FFA80F8B6F5803F00D3B946E5
:101CF00014F8010B2946FFF786FF0028EBDABBF149
:101D0000000F05D00FB1641E00E05446CBF8004030
:101D1000B9F1000F06D003F027F802210160C81EB8
:101D2000BDE8F09F48EA0640FAE700000FB4002340
:101D300000B589B00CA900910B996FF00042CB60FF
:101D40001E4B06931E4B07930423CDE901321D4A17
:101D5000089202466B460020FFF7B8FC09B05DF818
:101D600014FB70B586B006464FF0FF300091CDE908
:101D70000101002015460C4604903246694604A82D
:101D8000FFF7D4FF03460498211825B108B10A468D
:101D900000E022462A6000280DD0002B02DD0098CA
:101DA000884208D0081B0094CDE9010432466946F8
:101DB00004A8FFF7BBFF06B070BD00004D1C000873
:101DC0006B1C0008F51B00080029A8BF7047401CC9
:101DD000490008BF20F00100704710B4B0FA80FC41
:101DE00000FA0CF050EA010404BF10BC704749B17E
:101DF000CCF1200421FA04F411FA0CF118BF0121EE
:101E000021430843A3EB0C01CB1D4FEA00614FEACD
:101E1000102042BF002010BC704700EBC35010449C
:101E20000029A4BF10BC7047401C490008BF20F027
:101E3000010010BC704710B5141E73F1000408DADD
:101E4000401C41F1000192185B411A4301D120F07E
:101E5000010010BD2DE9F04D92469B4611B1B1FA3B
:101E600081F202E0B0FA80F220329046FFF7ADF93D
:101E700004460F4640EA0A0041EA0B0153465A461F
:101E8000084313D0114653EA010019D0C8F14002AB
:101E9000504600F05DF905460E465046594642460A
:101EA000FFF793F9084305D0012004E020463946A6
:101EB000BDE8F08D0020054346EAE0762C43374329
:101EC0000A986305E40AA0EB08000022FD0A44EA30
:101ED00047540A3002D500200146E9E701051019F0
:101EE0006941DDE9084500196941BDE8F04DA2E707
:101EF0002DE9FE4F81EA030404F0004421F0004183
:101F000000944FF0000B23F0004350EA01045ED030
:101F100052EA03045BD0C3F30A54C1F30A552C44BC
:101F2000A4F2F3340194A0FB0254C1F3130141F471
:101F30008011C3F3130343F4801301FB024400FB3D
:101F4000034E840A970A44EA815447EA8357A4FB64
:101F5000076802958D0A05FB07854FEA932C04FB61
:101F60000C542705029D4FEA065847EA1637B5EB91
:101F700008056EEB070C870E920E47EA811742EABE
:101F80008312A7FB0201B6EB0B0164EB00042B0DDF
:101F900043EA0C335E1844EB1C50DA465146E7FB2B
:101FA0000201C5F313044FEA0B3343EA14534FEA1B
:101FB0000432019C43EA0603A4F10C040294009C41
:101FC000CDE900B4FFF746FF03B0BDE8F08F002075
:101FD0000146F9E72DE9F04D81EA030404F0004BD6
:101FE00021F0004514464FF0000A23F0004150EA6A
:101FF000050220D054EA01021DD0C5F30A5702465B
:10200000C5F31303C1F31300C1F30A5640F480155E
:1020100043F48013A7EB0608101BD64608F2FD38E0
:1020200073EB050002D308F1010801E092185B414F
:10203000B8F1000F03DA00200146BDE8F08D002062
:102040004FF48011064684460EE0171B73EB05071C
:1020500005D3121B63EB050306434CEA010C490848
:102060004FEA300092185B4150EA0107EDD152EA85
:10207000030012D082EA040083EA0501084305D078
:10208000101BAB4106D20122002306E000224FF0D4
:10209000004302E06FF0010253101AEB06004CEB14
:1020A000085110EB0A0041EB0B01BDE8F04DFFF7C2
:1020B000C2BE0EB540F2334202920022CDE90022A8
:1020C0001346FFF7C7FE03B000BDC1F30A52C1F3C8
:1020D000130140F2FF3341F480119A4202DA0020EA
:1020E0000146704740F233439A42A2F2334202DC87
:1020F000524200F02DB8FFF768B8000030B5041E5A
:1021000071F1000404DB4FF00044404264EB010134
:10211000141E73F1000405DB1C464FF000435242CD
:1021200063EB0403994208BF904230BD064C074D53
:1021300006E0E06840F0010394E807009847103497
:10214000AC42F6D3FEF7F8FFF88D0008188E0008B1
:10215000202A04DB203A21FA02F00021704721FAFC
:1021600002F3D040C2F12002914008431946704763
:102170002DE9F34F8BB04FF0000801F10C000C4635
:102180004FF0010B46460DF1080A019062690121EA
:102190000198904705002DD0252D2CD0216A884725
:1021A000C0B16269012101989047216A88470028DF
:1021B000F7D1411E62690198904700E0761CA16941
:1021C0000B988847216A88470028F7D1E1690B9866
:1021D0008847DBE7A1690B9888470746A84201D1E9
:1021E000761CD3E7E1690B9888477F1C02D1B8F1D0
:1021F000000F6FD046E1002762693D4639460198DD
:1022000090472A2804D1626901210198904701254D
:10221000DFF884926269012101989047A0F13001B2
:102220000A290AD24F45E5DC07EB870100EB41079D
:10223000303FDFD445F01005ECE7E90601D46FF03C
:1022400000476C280AD04C2814D0682815D06A287A
:102250000DD074281CD07A281AD01DE062690121A3
:10226000019890476C2802D045F0040514E045F031
:1022700002050DE045F020050AE0626901210198A0
:102280009047682802D045F0080505E045F4006550
:102290006269012101989047C4E9015765283DD042
:1022A00019DC58287AD00CDC452837D004DC2528E6
:1022B00026D0412831D131E046282FD047282CD1D3
:1022C0002CE05B2877D0612828D063287CD0642854
:1022D00023D15AE0D0E06F2848D008DC66281DD012
:1022E00067281BD0692821D06E2816D127E07028D6
:1022F00045D0732868D0752847D078280DD14DE097
:10230000A1690B988847054625283FF469AFE16924
:102310000B9888476D1C3FF46AAFB3E023466A46CA
:102320006FF001000B99FFF7D1F99EE045F04000F6
:102330006060A80723464FF0000236D43EE0E8076D
:102340007FF447AF2068011D21600068290501D591
:1023500006701BE7290701D5068017E7A90703D5F3
:10236000F117C0E9006111E706600FE745F0400092
:102370006060A80723464FF0080216D41EE040F61E
:102380000E0125EA0100606016E045F04000606043
:10239000A80723464FF00A0207D40FE045F040009B
:1023A0006060A80708D5234610226FF001000B9942
:1023B000FEF7BAFF59E007E0234610226FF0010054
:1023C0000B99FFF75CF850E04FF000094F464B4681
:1023D000632802D05B2806D040E0E80601D4012043
:1023E000A06001273AE062690121019890475E28C8
:1023F00005D14FF00109626949460198904721696A
:1024000039B900210A46534643F82120491C0829BE
:10241000FADBB0B3216969B9C11700EBD16253117E
:102420000AEB830122F01F02821A01200B68904000
:1024300003430B6062690121019890475D28E8D150
:10244000B9F1000F09D00020514651F82020D243A5
:1024500041F82020401C0828F7DB02AB22460097F9
:102460006FF001000B99AFF3008000280CDA401CDC
:1024700008D1BBF1000F05D04FF0FF300DB0BDE823
:10248000F08FFFE74046F9E7E90701D108F10108BD
:1024900006444FF0000B79E6CCCCCC0C70B58C1810
:1024A00010F8015B15F0070301D110F8013B2A1168
:1024B00006D110F8012B03E010F8016B01F8016B55
:1024C0005B1EF9D12B0705D40023521E0DD401F851
:1024D000013BFAE710F8013BCB1A921C03E013F81A
:1024E000015B01F8015B521EF9D5A142D8D300204F
:1024F00070BD0000C10002D5024908607047024962
:10250000486070470404024000000240002904D0E3
:10251000016841F001010160704701684FF6FE72E9
:10252000114001607047000001684FF6FE721140D3
:1025300001600021016041608160C1603649364A16
:102540000839904204D1486840F00F004860704755
:10255000314A1432904204D1486840F0F00048609B
:1025600070472D4A2832904204D1486840F4706088
:1025700048607047284A3C32904204D1486840F491
:10258000704048607047244A5032904204D14868F5
:1025900040F47020486070471F4A6432904204D172
:1025A000486840F47000486070471B4A7832904297
:1025B00004D1486840F0706048607047174A111FA6
:1025C000904204D1086840F00F0008607047134A39
:1025D0001432904204D1086840F0F000086070475F
:1025E0000E4A2832904204D1086840F470600860B6
:1025F00070470A4A3C32904204D1086840F4704067
:1026000008607047054A50329042FAD1086840F499
:102610007020086070470000080002400804024073
:10262000406880B27047000002460020D10002D509
:102630000449096801E004490968114200D00120F9
:1026400070470000000402400000024030B50268FC
:1026500047F6F0739A430C6A8B682343D1E904452B
:102660002C4323438C692343CC6923434C6A234383
:102670008C6A234313430360CA6842600A6882601D
:102680004968C16030BD00000149C8607047000062
:102690000020024070B505464FF43026304600F069
:1026A0007BF8042811D1094C206940F00200206118
:1026B0006561206940F040002061304600F06CF810
:1026C000216941F6FD721140216170BD0020024078
:1026D00004200849CA68D20701D001207047CA689F
:1026E000520701D502207047C968C906FBD50320EF
:1026F0007047000000200240014902A002F010BB18
:102700001C8D0008257320456E7472792121210AE1
:10271000000000000248016941F08001016170473A
:10272000002002402DE9F84105460E4600200090A9
:102730004FF40057384600F02FF804280FD10F4C03
:10274000206940F0010020612E80B846404600F02C
:1027500023F8BF1E042804D0216939402161BDE857
:10276000F881AD1C00950099300C0880404600F0BF
:1027700013F8216939402161F1E70000002002408F
:10278000034802494160034941607047230167459E
:1027900000200240AB89EFCD00B50346FFF798FF5C
:1027A00002E0FFF795FF5B1E012801D1002BF8D155
:1027B000002B00D1052000BD0048704728040020F0
:1027C00008B501F04FFB01460E4A0FA002F0A8FA2F
:1027D0000FA002F0A5FA0FA002F0A2FA0E48002105
:1027E000C172C07850B141F28830009003231222A8
:1027F00001210AA003F0B6FF002008BD4FF0FF3012
:1028000008BD0000058A000825732025733A2000C2
:10281000000000000A0000000000002043474E5363
:102820005057523D3100000008B501F01BFB014636
:102830000E4A0FA002F074FA0FA002F071FA0FA076
:1028400002F06EFA0E480021C172C07850B141F218
:10285000883000900323132201210AA003F082FF95
:10286000002008BD4FF0FF3008BD0000FC890008C3
:1028700025732025733A2000000000000A000000A4
:102880000000002043474E535057523D3000000097
:102890002DE9F0410022CC7804F00F03E40601D5C5
:1028A0008C7823430C784FF00F0714F0FF0F4FF094
:1028B000010C1CD005680CFA02F40E882640A642D2
:1028C00011D1960007FA06F825EA080503FA06F87A
:1028D00048EA0505CE78282E02D0482E02D002E024
:1028E000446100E00461521C082AE4D305600A88B0
:1028F000FF2A1ED94568002202F108060CFA06F4E8
:102900000E882640A64210D1960007FA06F825EA5E
:10291000080503FA06F848EA0505CE78282E00D106
:102920004461CE78482E00D10461521C082AE3D3BA
:102930004560BDE8F0810000F0B5154C002801DAD3
:10294000E36900E06368C0F30346420D120185B2FB
:10295000C0F301579540032F07D0C2020CD50322C4
:10296000B240934343F0706209E023F07062636801
:1029700023F07063636002E0AB4343F0706201B127
:102980002A43002801DAE261F0BD6260F0BD000078
:10299000000001400246002092680A4200D0012057
:1029A0007047002A01D00161704741617047000003
:1029B00003484078042801D0002070470120704768
:1029C000000000200149086170470000000000205D
:1029D00000487047380100200148407870470000E7
:1029E0000000002010B50A48006140611830806086
:1029F000C06003F0FBFE03F0EDFF0021084600F08D
:102A0000AEFB0121BDE81040002000F0D4BB000067
:102A10007801002010B50948C178002909D0807AD2
:102A200038B902F06DFE03F07FFE05F00FFF03F0F2
:102A30005BFEBDE8104003F0F1BE00000000002086
:102A400010B51B48C17800290FD001F00BFA0146E0
:102A5000184A19A002F064F919A002F061F91DA04A
:102A600002F05EF94FF0FF3010BD007978B101F04F
:102A7000F9F901460F4A10A002F052F916A002F02F
:102A80004FF914A002F04CF96FF0010010BD01F0F5
:102A9000E9F90146074A08A002F042F910A002F045
:102AA0003FF90CA002F03CF903F0D2FF002010BD6A
:102AB000000000204E8A000825732025733A20006C
:102AC000616C726561647920706F776572206F6EDA
:102AD000000000000A000000427573792E2E2E00BF
:102AE0007374617274202E2E2E00000010B51548EC
:102AF000C178002911D00079F8B101F0B3F901468D
:102B0000114A12A002F00CF912A002F009F913A068
:102B100002F006F96FF0010010BD01F0A3F90146C3
:102B2000094A0AA002F0FCF80DA002F0F9F80BA087
:102B300002F0F6F84FF0FF3010BD03F089FF0020DF
:102B400010BD000000000020458A000825732025E4
:102B5000733A2000427573792E2E2E000A00000071
:102B6000616C726561647920706F776572206F6641
:102B70006600000010B586B0044601F073F9014606
:102B80000E4A0FA002F0CCF821460FA002F0C8F8C0
:102B90000EA002F0C5F8002C0DD022780CA101A8DF
:102BA00002F0CEF842F21070012300900D22194677
:102BB00001A803F0D7FD06B010BD00001B8A000875
:102BC00025732025733A2000257000000A000000BC
:102BD000434950434C4F53453D25642C3000000081
:102BE00000B59BB0002812D0009202780B4610A1CD
:102BF00002A802F0A5F843F69820012300900A22CB
:102C0000194602A803F0AEFD00201BB000BD01F084
:102C100029F901460D4A0EA002F082F80EA002F03A
:102C20007FF813A002F07CF84FF0FF30EDE70000D2
:102C300043495053544152543D25642C225443502F
:102C4000222C222573222C2564000000368A0008DD
:102C500025732025733A20004552523A20736F6342
:102C60006B6574206973206E756C6C210000000028
:102C70000A00000070B50024184D55F8240028B152
:102C8000641CE4B2022CF8D3002070BD182002F0BE
:102C90009DF845F82400F0B1047055F82410002088
:102CA000886055F82410486155F82410C86055F81C
:102CB0002410086101F0D6F80146094A09A002F083
:102CC0002FF8214609A002F02BF80AA002F028F8FC
:102CD00055F8240070BD002070BD00001C000020CD
:102CE000288A000825732025733A20006964203D56
:102CF000202564000A00000070B50446002C0ED0A8
:102D00002578284602F080FEA06808B102F030F86D
:102D1000204602F02DF80249002041F8250070BD40
:102D20001C0000202DE9F041064688461746002485
:102D3000002E03D0274DA86880B111E001F092F871
:102D40000146254A25A001F0EBFF26A001F0E8FF8F
:102D500029A001F0E5FF0020BDE8F081AD60ED6045
:102D6000A868816803E0641CE4B208468168A84250
:102D7000F9D10A2C0FD901F075F80146164A17A0AF
:102D800001F0CEFF21461DA001F0CAFF1AA001F0FC
:102D9000C7FF0020E0E7102002F018F8044638468C
:102DA00002F014F8606090B13A464146FEF71CFA12
:102DB000678030782070A86808B9AD60ED60A560C4
:102DC000E8688460E868E060EC603846C4E70020AA
:102DD000C2E70000900100200F8A0008257320251B
:102DE000733A20004552523A20736F636B20697327
:102DF000206E756C6C2100000A0000006C69737411
:102E00002066756C6C2C25640000000070B50646C9
:102E10000D46502001F0DAFF044601F023F8014688
:102E2000224A23A001F07CFF214623A001F078FF75
:102E300024A001F075FFA5723046FEF72DFA401C64
:102E400001F0C4FF20604FF4007001F0BFFF606329
:102E50001DA13046FEF7F8F920B1F11D2068FEF7FC
:102E60003DFA03E031462068FEF738FA04F10C0021
:102E70006061A061002060602062E061204604F093
:102E800087F970B100F0EEFF0146084A08A001F092
:102E900047FF0FA001F044FF0AA001F041FF2046C8
:102EA00070BD204600F016F8002070BD7A8A000838
:102EB00025732025733A2000726571756573743A25
:102EC000257000000A000000687474703A2F2F000B
:102ED000000000002DE9F0470446206801F048FF9B
:102EE00000F0C0FF01462D4A2DA001F019FF2EA0D1
:102EF00001F016FF31A001F013FFDFF8C4A0DAF8EB
:102F00000400FFF7F9FE4FF00009CAF8049000260C
:102F1000606B01F02DFFE06908B101F029FF6069E5
:102F200004F10C0708B96761A7616569D5F80880E5
:102F300007E016B1304603F01CF82E464546D5F89A
:102F40000880BD42F5D116B1304603F012F800F00A
:102F500089FF0146114A12A001F0E2FE19A001F01A
:102F6000DFFE16A001F0DCFE606818B101F000FF82
:102F7000C4F8049000F076FF0146084A08A001F06A
:102F8000CFFE15A001F0CCFE0CA001F0C9FE20463A
:102F900001F0EEFECAF80090BDE8F0878C8A0008C8
:102FA00025732025733A2000667265652872657165
:102FB000756573742D3E75726C2900000A0000005F
:102FC0002400002064657374726F79506172616DC2
:102FD00028706172616D290066726565287265717D
:102FE000756573742D3E686F7374290070B504465F
:102FF000154D2C60012084F82C0000F0EDF82063C2
:1030000000F030FF0146114A11A001F089FE12A024
:10301000216801F085FE13A001F082FE686810B9F6
:10302000FFF728FE6860686800280BD00E49C16071
:103030000E4941610E49016122896168BDE8704015
:10304000FFF7CEBD70BD000024000020B68A000846
:1030500025732025733A200073746172743A2573C6
:10306000000000000A0000009D5A0008557E00087C
:10307000915F000810B501F0B3F804F0B3F900F067
:1030800098F800F031F800F04FF900F0B1F8BDE821
:10309000104005F05FBB10B500F0B0F900F08AF801
:1030A00000F0E4F800F021F8BDE8104005F024BB82
:1030B000012080F31388BFF34F8F05480168054A4C
:1030C00001F4E06111430160BFF34F8F00BFFDE7E2
:1030D0000CED00E00400FA0501494000087070475B
:1030E000D000002003F04CB97047704792B203F053
:1030F0005CB92DE9F043ADF2044D05460E460024BF
:10310000C2F38727C2F309094FF480680DE006EB8C
:103110008421424601A8FEF767F805EB8420424669
:1031200001A903F04BF9641CE4B2BC42EFD3B9F13E
:10313000000F10D0FF22414601A8FEF767F806EB0A
:1031400084214A4601A8FEF74FF805EB8420424649
:1031500001A903F033F90DF2044DBDE8F08338B551
:1031600004460D465F2C11D8204603F07DFDADF8D6
:10317000000003208DF802004DB148208DF80300B7
:10318000204603F077FD6946FFF782FB38BD10202B
:103190008DF80300F4E770B50546284603F064FD9A
:1031A0000446284603F066FD2146BDE87040FFF75F
:1031B000F1BB7047704770B506460C46304603F0C9
:1031C00053FD0546304603F055FD22462946BDE82D
:1031D0007040FFF7E6BB0000014840687047000000
:1031E000D0000020002801D062B6704772B6704748
:1031F0007FB540F2E330ADF804004720ADF8080099
:103200000024ADF80640ADF80A408DF80C40124D90
:1032100001A9284601F042F84FF4C06000F03EFDDD
:1032200019218DF8001001218DF803108DF801404F
:1032300002218DF80210684600F0FEFC01212846AC
:1032400001F00CF801221146284601F01DF8012179
:10325000284601F006F87FBD002C01400248416875
:10326000491C416070470000D000002070470000FA
:103270002DE9FF4106460C46684601F05FF9234FF1
:103280007EB3012E30D0022E3DD1214D214800EBDE
:10329000061194E84D004DC10021284601F090F838
:1032A00040F2255600223146284601F0C6F8A068B3
:1032B00000906088ADF804002088ADF80800002078
:1032C000ADF806000C20ADF80A00A088ADF80C009F
:1032D0006946284601F0CCF8BD4207D102F082FED3
:1032E0000DE0FFE73D46D1E70B4DCFE731462846DD
:1032F00001F05EF801223146284601F09EF80121D6
:10330000284601F05DF8BDE8FF810000003801406B
:1033100000480040A004002000440040014A5060E2
:1033200091607047DC0000202DE9FC414FF4C06043
:1033300000F0B4FC26208DF8040000208DF8050074
:1033400001248DF806408DF8074001A800F074FCB8
:1033500027208DF804008DF806408DF8074001A85D
:1033600000F06AFC6702ADF8007018268DF8036063
:1033700003258DF80250DFF8788069464046FFF754
:1033800087FAA002ADF8000004248DF803406946D6
:103390004046FFF77DFAADF800408DF803608DF8E8
:1033A000025069464046FFF773FA0820ADF8000066
:1033B0008DF8034069464046FFF76AFA01210D483F
:1033C000FFF7BAFAA001ADF800008DF803608DF8A0
:1033D0000250094D69462846FFF75AFAADF80070C9
:1033E0008DF8034069462846FFF752FABDE8FC8194
:1033F00000080140300014000014014070B5124C68
:103400002046FFF70DF9114D298888420AD0204641
:10341000FFF706F90446A96819B12888001B80B295
:1034200088472C804FF400342046FFF7FDF8012830
:1034300009D12046FFF75EF8A96809B128888847B6
:103440004FF40070288070BD58000240DC0000205E
:103450002DE9F0410D461746002804D0012804D07C
:103460000B4E00240FE00B4EFBE70B4EF9E7295DF6
:10347000304601F05FF84021304600F0B7FF0028E9
:10348000F9D0641CA4B2BC42F1D3BDE8F0810000C5
:10349000004800400038014000440040F0B50024DE
:1034A00000230EE0CD18CE5C6F7846EA0726AF7891
:1034B000ED783F0447EA05652E4340F82460641C1C
:1034C0001B1D9342EED3F0BD70B50023002411E024
:1034D00011F82350055531F823502E0A05196E7046
:1034E00051F82360360CAE7051F82360360EEE7042
:1034F0005B1C241D9442EBD370BD00002DE9F0410C
:10350000C0B00446D4F800806568A668E768402229
:103510006846FFF7C3FF05EA060027EA05010843EE
:10352000FE4908440099414408444FEA706041193B
:1035300001EA050026EA01021043F94A1044019A03
:103540003A4410444FEA3050431803EA010025EA98
:1035500003021043F34A1044029A324410444FEAE3
:10356000F030184400EA030221EA00063243EE4E2E
:103570003244039E35442A444FEAB222024402EA0E
:10358000000523EA02063543E84E3544049E3144E3
:1035900029444FEA7161114401EA020520EA01065B
:1035A0003543E34E3544059E33442B444FEA3353B1
:1035B0005D1805EA010322EA05063343DD4E334474
:1035C000069E304418444FEAF030431903EA0500E0
:1035D00021EA03063043D84E3044079E324410445B
:1035E0004FEAB020C21802EA030025EA020630437F
:1035F000D24E3044089E314408444FEA706081182E
:1036000001EA020023EA01063043CD4E3044099E10
:10361000354428444FEA3050084400EA010522EAC4
:10362000000635430A9EA5F524454F3D33442B44FF
:103630004FEAF3331D1805EA000321EA0506334378
:10364000C04E33440B9E32441A444FEAB2222A44FD
:1036500002EA050320EA02063343BB4E33440C9EC4
:10366000314419444FEA71618B1803EA020125EADB
:1036700003063143B54E31440D9E304408444FEAB1
:103680003050C11801EA030022EA01063043B04E6F
:1036900030440E9E354428444FEAF030084400EA96
:1036A000010523EA00063543AA4E35440F9E3244F5
:1036B0002A444FEAB222151805EA010220EA01065F
:1036C0003243A54E3244019E33441A444FEAF2621B
:1036D0002A4402EA000325EA000633439F4E33449E
:1036E000069E314419444FEAF1518B1803EA050153
:1036F00022EA050631439A4E31440B9E3044084479
:103700004FEAB040C11801EA020023EA0206304342
:10371000944E3044009E354428444FEA30300844EB
:1037200000EA030521EA030635438F4E3544059E22
:1037300032442A444FEAF262024402EA010520EAD6
:1037400001063543894E35440A9E33442B444FEAE3
:10375000F353134403EA000522EA00063543844E7E
:1037600035440F9E314429444FEAB141194401EADE
:10377000020523EA020635437E4E3544049E30445A
:1037800028444FEA3030084400EA030521EA0306E2
:103790003543794E3544099E32442A444FEAF26259
:1037A000024402EA010520EA01063543734E35441E
:1037B0000E9E33442B444FEAF353134403EA0005AF
:1037C00022EA000635436E4E3544039E31442944B7
:1037D0004FEAB141194401EA020523EA02063543E2
:1037E000684E3544089E304428444FEA303008443F
:1037F00000EA030521EA03063543634E35440D9E76
:1038000032442A444FEAF262024402EA010520EA05
:10381000010635435D4E3544029E33442B444FEA46
:10382000F353134403EA000522EA00063543584ED9
:103830003544079E314429444FEAB141194401EA15
:10384000020523EA02063543524E35440C9E3044AD
:1038500028444FEA30300844059D4F4E154480EA15
:1038600001025A4032442A444FEA32720244089D0F
:103870004A4E1D4482EA00034B4033442B444FEA36
:10388000735313440B9D464E0D4483EA020141409D
:10389000314429444FEA314119440E9D414E0544BB
:1038A00081EA03005040304428444FEA7020084425
:1038B000019D3D4E154480EA01025A4032442A449B
:1038C0004FEA32720244049D384E1D4482EA0003DE
:1038D0004B4033442B444FEA73531344079D344EFB
:1038E0000D4483EA02014140314429444FEA314109
:1038F000CD180A992F4E014485EA03005040304408
:1039000008444FEA702028440D992B4E0A4480EA5F
:10391000050159403144114450E0000078A46AD7B1
:1039200056B7C7E8DB702024EECEBDC1AF0F7CF5E3
:103930002AC68747134630A8019546FDD898806966
:10394000AFF7448BBED75C892211906B937198FDC1
:103950008E4379A62108B44962251EF640B340C0C3
:10396000515A5E26AAC7B6E95D102FD653144402F9
:1039700081E6A1D8C8FBD3E7E6CDE121D60737C35E
:10398000870DD5F4ED145A4505E9E3A9F8A3EFFC3A
:10399000D9026F678A4C2A8D4239FAFF81F6718706
:1039A00022619D6D0C38E5FD44EABEA4A9CFDE4B33
:1039B000604BBBF670BCBFBEC67E9B284FEA317120
:1039C0000144009A854E134481EA00026A40324461
:1039D0001A444FEA72525318039A814E154483EAEF
:1039E0000102424032442A444FEA32421A44069DC0
:1039F0007C4E054482EA03004840304428444FEAA4
:103A000070201044099D784E0D4480EA020159400F
:103A1000314429444FEA317101440C9D734E1D44D9
:103A200081EA0003534033442B444FEA73535D183B
:103A30000F9B6F4E134485EA0102424032441A4400
:103A40004FEA32422A44029B6A4E034482EA05004E
:103A50004840304418444FEA702083180098664E5E
:103A6000014463EA05005040304408444FEAB06026
:103A700018440799614E0D4460EA020159403144EF
:103A800029444FEAB1510D180E995D4E0A4465EA7A
:103A900003014140314411444FEA71412944059AE0
:103AA000584E134461EA00026A4032441A444FEA15
:103AB000F2220A440C9B544E034462EA050048403B
:103AC000304418444FEAB0601044039B4F4E1D44ED
:103AD00060EA0103534033442B444FEAB3531D18AB
:103AE0000A9B4B4E0B4465EA0201414031441944A4
:103AF0004FEA71414B190199464E0A4463EA0001AD
:103B00006940314411444FEAF121CA180899424EE4
:103B1000014462EA05005840304408444FEAB0606E
:103B200081180F983D4E054461EA0300504030442F
:103B300028444FEAB05045180698394E034465EAC8
:103B400002004840304418444FEA704028440D9B1E
:103B5000344E134460EA01026A4032441A444FEA88
:103B6000F2220244049B304E0B4462EA05014140BC
:103B7000314419444FEAB16111440B9B2B4E1D4453
:103B800061EA0003534033442B444FEAB3530B44E0
:103B9000029D274E054463EA020048403044284411
:103BA0004FEA70401844099D224E154460EA010214
:103BB0005A4032442A444FEAF222024425682944FA
:103BC0002160616811446160A1680844A060E068F8
:103BD0001844E06040B0BDE8F0810000FA27A1EA97
:103BE0008530EFD4051D880439D0D4D9E599DBE6BA
:103BF000F87CA21F6556ACC4442229F497FF2A43DF
:103C0000A72394AB39A093FCC3595B6592CC0C8F6E
:103C10007DF4EFFFD15D84854F7EA86FE0E62CFE3A
:103C2000144301A3A111084E827E53F735F23ABD29
:103C3000BBD2D72A91D386EB70B50F23C278012669
:103C40000178002A1ED0144A126802F4E062C2F51C
:103C5000E062120AC2F10404D3404578A54082789C
:103C60001A402A43120101F1E02181F80024007872
:103C700000F01F018E404009800000F1E020C0F8F4
:103C8000006170BD01F01F0086404809800000F10E
:103C9000E020C0F8806170BD0CED00E002490843EF
:103CA00002490860704700000000FA050CED00E0D2
:103CB000054A002903D05169014351617047516998
:103CC000814351617047000000100240054A0029FD
:103CD00003D0D1690143D1617047D1698143D1617A
:103CE0007047000000100240054A002903D0916986
:103CF0000143916170479169814391617047000070
:103D00000010024010B5264A516801F00C01254B05
:103D1000002927D0042927D0082927D0036051681B
:103D200001F0F0010909204B5C5C0168E140416051
:103D3000546804F4E064240A1C5D21FA04F48460ED
:103D4000546804F46054E40A1B5DD940C1605268B1
:103D500002F44042920B144B1B1F9A5CB1FBF2F130
:103D6000016110BD0360DAE70360D8E7516801F430
:103D70007011536803F48033022404EB914133B192
:103D800053689B0307D5094B59430160C7E7074BAD
:103D900059430160C3E7034B59430160BFE700008B
:103DA0000010024000127A001601002000093D00B8
:103DB000AFF300800CB50022019200922748016801
:103DC00041F4803101604FF4A063016801F40031D7
:103DD00000910199491C0191009911B901999942E9
:103DE000F3D10168890302D50121009100E000921E
:103DF0000099012930D11A490A6842F010020A607C
:103E00000A6822F003020A600A6842F002020A60AD
:103E10004168416041684160416841F480614160AE
:103E2000416821F47C114160416841F4E81141602E
:103E3000016841F08071016001688901FCD5416829
:103E400021F003014160416841F002014160416895
:103E5000C1F381010229FAD10CBD0000001002401B
:103E60000020024010B586B00D4C01F0E5FF6279EC
:103E70002089A1792379CDE90132CDE90310E078D9
:103E80000090A378228807A1A4F11C0000F058FF3D
:103E9000A4F11C010020487406B0084610BD0000C3
:103EA000EC0400202530346425303264253032643F
:103EB0002530326425303264253032642530336455
:103EC0000000000010B501F0B7FF014810BD000070
:103ED000EC04002000487047E204002000487047CE
:103EE0000101002000487047F800002003480078D6
:103EF000002801D00148704700207047F8040020D6
:103F000008B5042269460448FFF7F0F80098411C00
:103F100000D13C2008BD000000D80308FEF758BDC2
:103F200000487047F000002010B5FFF7A3F804F038
:103F30001CFC00F0FBF804F0D7FCBDE8104003F0D7
:103F4000CDBA000070B50446044D2878A04202D0D6
:103F50002046FFF747F92C7070BD0000E8000020F4
:103F60007CB505460E462888C0F3C500382802D225
:103F7000C0F1380401E0C0F17804082229466846FF
:103F8000FFF7A2FA22460849284600F021F8082245
:103F90006946284600F01CF8102205F10801304659
:103FA000FFF792FA7CBD0000900000200021016024
:103FB0004160054981600549C1600349C943016108
:103FC0000249C943416170470123456789ABCDEF81
:103FD0002DE9F04705468846164600242968C1F3B6
:103FE000C500C0F1400701EBC6012960B1EBC60F67
:103FF00002D26968491C6960696801EB56716960A1
:10400000BE421AD3284418303A464146FDF7ECF830
:1040100005F1080005F118018146FFF76FFA3C46EB
:1040200005E008EB04014846FFF768FA3C4604F156
:1040300040000746B042F4D90020321B284408EB68
:104040000401BDE8F0471830FDF7CEB810B5FFF712
:1040500022F800F06DF801F0EFFEBDE8104004F02A
:104060005BBC000010B5FFF7FDFE0146064A07A045
:1040700000F056FE07A000F053FE07A000F050FE2F
:10408000BDE81040FFF714B8428D000825732025C5
:10409000733A2000000000000A000000002806D04B
:1040A00003490268CA6142680A62008988847047CD
:1040B000D004002001460148FDF710B9E2040020B9
:1040C000024A01231370506091607047F804002089
:1040D00031B5FFF7C7FE01460A4A0BA000F020FEEB
:1040E0000BA0009900F01CFE0DA000F019FE0D4C75
:1040F0002046FEF7F7FF042269462046FEF7F9FF47
:1041000038BD00002D8D000825732025733A20004E
:10411000696E74657276616C203D20256400000034
:104120000A00000000D80308FEF7D6BF7047000061
:1041300070B50024094E06EB04152878C00709D095
:10414000FFF74AF86968401A6988884202D9284608
:1041500004F0E9FB641C0A2CEDDB70BD04050020B3
:104160002DE9F0410746164600240020124D05EBCC
:1041700000121278D20703D0401C0A28F7DB05E0B2
:1041800005EB0014207840F00100207094B1E3604A
:10419000A7606180FFF720F86060207866F3470031
:1041A00020704008800702D5204604F0BCFB204662
:1041B000BDE8F0810020FBE70405002070B504464F
:1041C000002C0AD0054D2846FEF78CFF21462846D4
:1041D000BDE870401822FEF78CBF70BD00E00308F8
:1041E00010B50F48016841F00101016041680D4AB6
:1041F0001140416001680C4A11400160016821F4DE
:1042000080210160416821F4FE0141604FF41F01EB
:104210008160FFF7CDFD06490448086010BD00002D
:10422000001002400000FFF8FFFFF6FE001000083B
:1042300008ED00E010B5084C0121204600F01DF803
:10424000002807D00121204600F008F8BDE8104002
:10425000FFF704B810BD0000002C0140C9430182E3
:104260007047002904D0018841F0010101807047A6
:10427000018821F001010180704702460020128A66
:104280000A4200D001207047002A03D082890A43E5
:104290008281704782898A438281704730B5028863
:1042A0001B4C1C4DA0420DD0A8420BD0B0F1804F4A
:1042B00008D0194B984205D0184B984202D0184BA1
:1042C000984203D122F070034A881A43154B984252
:1042D00006D0154B984203D022F44073CA881A4383
:1042E00002808A8882850A880285A0420AD0A84274
:1042F00008D00E4A904205D00D4A904202D00D4A95
:10430000904201D1097A01860121818230BD0000ED
:10431000002C01400034014000040040000800402F
:10432000000C00400010004000140040004001401C
:10433000004401400048014038B50C4C40F225557E
:104340002946204600F059F800280ED0294620467C
:1043500000F02EF8204600F0E9F800900448C26909
:10436000002A02D001216846904738BD0044004031
:10437000A004002038B50C4C40F2255529462046B3
:1043800000F03BF800280ED02946204600F010F837
:10439000204600F0CBF800900448C26A002A02D000
:1043A00001216846904738BD00480040A004002025
:1043B00040F66A120A0A01219140C9430180704700
:1043C000002904D0818941F400518181704781899D
:1043D00021F4005181817047002A03D0828A0A4368
:1043E00082827047828A8A43828270470246002016
:1043F00012880A4200D00120704770B5002440F6B0
:104400006A12C1F3421301F01F05012606FA05F2F4
:10441000012B0CD0022B0DD0838A1340090A8E4049
:10442000008830400BB100B10124204670BD838963
:104430001340F3E7038A1340F0E710B540F66A1320
:10444000C1F3421301F01F040121A140012B07D049
:10445000022B07D014303AB102680A43026010BD43
:104460000C30F8E71030F6E702688A43026010BDAE
:1044700030B585B004460D46208A4CF6FF710840E1
:10448000E98801432182A0894EF6F3110840A988EA
:104490002A8911436A8902431143A181A08A4FF6F8
:1044A000FF410840A9890143A1826846FFF72AFC21
:1044B0001D48844201D1039800E00298A1890904B3
:1044C00008D500EBC00101EB001029684900B0FBE2
:1044D000F1F007E000EBC00101EB00102968890052
:1044E000B0FBF1F06422B0FBF2F109010B096FF0AF
:1044F00018056B4300EB8300A3891D044FF03203C2
:1045000007D503EBC000B0FBF2F000F00700084352
:1045100006E003EB0010B0FBF2F000F00F000843E0
:10452000208105B030BD0000003801408088C0F314
:1045300008007047C1F30801818070474FF416519D
:10454000016000218180C18001810C224281818132
:10455000704700000149C860704700003800002023
:1045600010B50948C0600061FEF73CFA0748FEF745
:1045700029FA00F0ABF90649064800F0A1F9FFF767
:10458000BFFC0549886010BD74040020056900085F
:10459000E1770008118800083800002070B50D464A
:1045A00002F04CF80446002C1BD025B101216068B4
:1045B00000F09CFA03E00221606800F097FAE068DE
:1045C00030B12169C860D4E9031008610020E060BF
:1045D000606808B100F0CCFB2046BDE8704000F0F8
:1045E000C7BB70BD10B509488078002809D003F01A
:1045F0006DFE03F06BFD02F0B7FA04F0ADF900F0C8
:10460000ABFABDE81040FEF705BA00003800002004
:1046100010B5FFF727FC01460A4A0BA000F080FB0B
:104620000BA000F07DFB0BA000F07AFB0A4840785D
:10463000022802D04FF0FF3010BD00F0DBFA00205E
:1046400010BD00001E8C000825732025733A200041
:10465000000000000A0000003800002070B5044689
:104660000D46FFF7FFFB0146084A09A000F058FB82
:104670002A46214608A000F053FB0CA000F050FB96
:104680002946204600F0C6FA002070BD408C000884
:1046900025732025733A20006E616D653A202573DD
:1046A0002C20666C61673A20257300000A00000028
:1046B000F0B585B006460C461546002001900290E4
:1046C00003900490FFF7CEFB0146104A10A000F0C3
:1046D00027FB2046FDF702FA0F46044602460B462A
:1046E00031460DA0009500F01BFB11A000F018FB57
:1046F00022463B460FA101A800F022FB2A4601A951
:10470000304600F0B9FA05B00020F0BD328C000848
:1047100025732025733A200025732C2076616C7553
:10472000653A25662C20666C61673A2564000000B6
:104730000A000000256600002DE9F0410546084604
:1047400001F07CFF0446002D6FD0FFF78BFB014684
:10475000374A38A000F0E4FA38A000F0E1FA38A0B7
:1047600000F0DEFA002C60D06868002847D0687836
:10477000C0EB0010323000F029FB80465FEA0800F1
:1047800041D0287A2F492A7851F820302EA140466E
:1047900000F0D6FA87B2002610E0686850F82600CC
:1047A000FDF79CF908EB070C02460B4632A1604668
:1047B00000F0C6FA384487B2761CF6B26878401E1C
:1047C000B042EADC68786968401E51F82000FDF7C5
:1047D00085F908EB070502460B4628A1284600F09C
:1047E000AFFA424640F6C830616800F0B7F940467B
:1047F00000F0BEFA0121606800F078F903E00221C0
:10480000606800F073F9E06830B12169C860D4E9EC
:10481000031008610020E060606808B100F0A8FAA9
:104820002046BDE8F04100F0A3BABDE8F0810000E9
:10483000818C000825732025733A200000000000B9
:104840000A0000006800002043616C69622D4D651C
:1048500074686F643D25642C43616C69622D5461FA
:10486000726765743D25732C43616C69622D5061DC
:1048700072616D3D5B00000025662C0025665D00C1
:1048800010B5FFF7EFFA0146074A08A000F048FA12
:1048900008A000F045FA08A000F042FAFEF7D0F8B0
:1048A00006490120887010BD078C0008257320255B
:1048B000733A2000000000000A00000038000020C9
:1048C000014A1060516070472C00002003480061CD
:1048D00040611830C0600061704700003C04002057
:1048E0002DE9F043C3B00446894617460025FFF77B
:1048F000B9FA0146294A2AA000F012FA2AA000F0CB
:104900000FFA2AA000F00CFA002F2DD0FFF708FBB9
:104910000646FFF7DFFA8046FFF700FBCDE9008689
:104920000246234622A103A800F00AFA03A8FCF7D6
:10493000B3FC03A946180024A7F1010809E019F8FF
:10494000042070192AA100F0FBF92844C5B2641CA8
:10495000E4B24445F3DB09EB070026A110F8012C73
:10496000701900F0EDF90FE0FFF7DAFA0546FFF7EE
:10497000B1FA0646FFF7D2FACDE9006502462346B2
:104980001EA103A800F0DCF9012303AA40F6CD31F3
:10499000162001F059FD43B0BDE8F083F08B00080C
:1049A00025732025733A2000000000000A00000053
:1049B00049434349443D25733B527464496E7465D1
:1049C0007276616C3D25643B464D572D5479706578
:1049D0003D25733B464D572D56657273696F6E3D8D
:1049E00025733B4572726F72436F64653D5B0000D7
:1049F00025642C0025645D3B0000000049434349C9
:104A0000443D25733B527464496E74657276616CE3
:104A10003D25643B464D572D547970653D25733BCC
:104A2000464D572D56657273696F6E3D25733B4534
:104A300072726F72436F64653D5B5D0070B50546D1
:104A40000E46002429461FA000F06AF9002008E065
:104A5000295C232903D12918497823291FD0401C18
:104A600080B2B042F4D3002C2AD00A220021A01C2C
:104A7000FCF748FF85B2A61D6019801D1022002199
:104A8000FCF740FF84B22946304601F045F9A042C8
:104A900007D129463046BDE8704002F041B92C18D4
:104AA000E1E7FFF7DFF901460A4A0BA000F038F909
:104AB0000BA000F035F9BDE8704005A000F030B95A
:104AC00070BD00004D736720726563763A202573D0
:104AD0000A0000002E8B000825732025733A200061
:104AE000637263206572726F7221000030B589B005
:104AF00004460D46202101A8FCF78FFBFFF7B2F911
:104B000001460C4A0CA000F00BF90DA000F008F9CA
:104B10000CA000F005F92B4622460BA101A800F0DD
:104B20000FF9002301AA42F234315B2001F08CFC22
:104B300009B030BDE28A000825732025733A2000B1
:104B4000000000000A000000514E3D25733B4578EF
:104B50006552746E3D25640002F05CB92DE9F041A8
:104B600007460D461646FFF77DF90146194A1AA079
:104B700000F0D6F81AA000F0D3F81AA000F0D0F890
:104B8000F5B12846FCF788FB04463046FCF784FB69
:104B90002044103000F01AF90446002C18D0334697
:104BA0002A4611A1204600F0CBF8002322463946C0
:104BB000162001F049FC2046BDE8F04100F0D8B8CD
:104BC00032463946BDE8F0410023162001F03CBCD6
:104BD000BDE8F0813E8B000825732025733A200044
:104BE000000000000A000000514E3D25733B257374
:104BF0000000000010B502F067FD044600232246C5
:104C000040F2DB71162001F01FFC2046BDE8104089
:104C100000F0AEB870B506460D46182000F0D6F884
:104C20000446200024D03046FCF736FB401C00F040
:104C3000CDF8206010B13146FCF750FB00266660CD
:104C40005DB12846FCF728FB401C00F0BFF8A060CF
:104C500010B12946FCF742FBE6600648016909B934
:104C600000614061206141690C6141696161446199
:104C700070BD00003C0400202DE9F04781468846C5
:104C80001746154E3069002801D1366176613469C6
:104C9000256906E049462068FCF705FB28B12C464B
:104CA0002569B442F6D1BDE8F087606818B100F01C
:104CB0005FF8002060604046FCF7EEFA401C00F010
:104CC00085F8606010B14146FCF708FBA068002839
:104CD000E9D0E760E7E700003C04002010B5FFF7EB
:104CE000C1F80146094A0AA000F01AF80AA000F02B
:104CF00017F80AA000F014F80123BDE8104006A23E
:104D000040F6CC31162001F09FBB00005C8B000800
:104D100025732025733A2000000000000A000000DF
:104D20000FB4054B10B503A9044A029800F04CF9E2
:104D300010BC5DF814FB0000396400082801002055
:104D40000FB4084B10B504A902AA039800F03CF96F
:104D5000044602A9002000F0CEFC204610BC5DF8FD
:104D600014FB0000F756000800487047340100208B
:104D700030B528B1144C031F002021680A4605E015
:104D8000084630BD9A4203D810465268002AF9D12D
:104D9000002800D041680BD00468A3EB0005A542B1
:104DA00004D11B681C440346046002E0436000E039
:104DB00023603AB11C68D51AA54203D115682C446A
:104DC0001C6052685A6030BD2C0100202DE9F0476C
:104DD00082460F4C10480D4E0E4F001B4FF000083E
:104DE00020F007054FF0010900221146504601F05E
:104DF00013FF002802D1306810B10020BDE8F08711
:104E00003C60C4E90058C6F80090EDE7300100208E
:104E1000AC0500202C010020A81D002001480068DE
:104E2000704700003401002002E008C8121F08C1CA
:104E3000002AFAD170477047002001E001C1121F1B
:104E4000002AFBD17047000001490860704700004C
:104E5000340100202DE9FF5FDDE90220010DDDF8BE
:104E600038B0024318D044F61050A1F2FF3141434C
:104E70000D140F98012820D0A5EB0B00401C5FEA11
:104E8000000A4FF00004474EDFF81C91A046504640
:104E900016D5CAF1000728E00F98012443A2012883
:104EA00008D0002100980F9BC0E90021C0E902430F
:104EB000BDE8FF9F6FEA0B01F4E7CBF10000DEE7EE
:104EC000074612E0F80707D02246334640464946D7
:104ED000FDF70EF8804689462246334610461946AD
:104EE000FDF706F804460E467F10002FEAD1DDE9F3
:104EF0000201BAF1000F42464B4602DAFCF7F8FF16
:104F000001E0FDF767F804460E460022284BFDF746
:104F1000F5F803D84FF0FF30014607E00022254B9B
:104F200020463146FCF733FDFDF7CFF8102409E0A9
:104F3000002C0ADB0A220023FCF715FE019B30320D
:104F40001A55641E50EA0102F2D1641C019AC4F1A0
:104F5000110314440F9A012A03D0012208430DD1F2
:104F60000AE0084304D000204FF0110B0F9080E7B7
:104F7000A3EB0B056D1E0DE05B4504DD4FF0000259
:104F800005F1010504E003DA4FF00002A5F1010587
:104F9000002AECD000980F99C0E90231C0E9004521
:104FA00086E70000000024400000F03F30000000D1
:104FB0000000F0430000E03F30380A2801D2012011
:104FC00070470020704700002DE9FF4F95B09B46C9
:104FD0008946064600250FE2252877D1002427467A
:104FE000F84A0121059400E0044316F8013F203BF4
:104FF00001FA03F01042F7D130782A2811D06FF06F
:105000002F033078A0F13002092A16D8059A44F00F
:10501000020402EB820203EB42021044761C05906C
:10502000EFE759F8042B0592002A03DA504244F4C2
:105030000054059044F00204761C30782E2816D1D6
:1050400016F8010F44F004042A280DD06FF02F0247
:105050003078A0F13003092B09D807EB870302EB66
:105060004303C718761CF3E759F8047B761C3078A5
:105070006C280FD006DC4C2817D068280DD06A2881
:1050800014D104E0742810D07A280FD10DE044F434
:1050900000140AE044F4801401E044F440147278EF
:1050A000824202D104F58014761C761C3078662882
:1050B0000BD013DC582877D009DC002875D04528A0
:1050C000F6D04628F4D047281AD19DE118E063288D
:1050D00035D0642879D0652812D195E1702873D035
:1050E00008DC6728F1D069286FD06E280DD06F28B2
:1050F00006D1B5E073282CD0752875D0782874D0E7
:105100005A46179990476D1C75E1C4F30250022866
:1051100009D003280DD0D9F8001004280DD00D6057
:1051200009F1040967E1D9F80010EA17C1E9005252
:10513000F6E7D9F800100D80F2E70D70F0E719F8E6
:10514000041B8DF8001000208DF80100EA460120B4
:1051500003E059F804AB4FF0FF3061074FF0000156
:1051600002D40DE008F101018846B9420FDA80450A
:10517000F8DB1AF808100029F4D108E008F1010161
:1051800088468142FADB1AF808100029F6D1059802
:105190005B46A0EB080721463846179A00F094FAC0
:1051A000284400EB080507E04DE029E10DE01AF87E
:1051B000010B5A4617999047B8F10108F7D25B46A0
:1051C00021463846179A13E142E00A220092C4F3BE
:1051D00002524FF0000A022A08D059F804CB032AE1
:1051E0004FEAEC710AD00DE029E02AE009F107014D
:1051F00021F00702F2E802C1914609E00FFA8CFCA7
:105200004FEAEC71042A03D14FFA8CFC4FEAEC719F
:10521000002907DA0A460021DCF1000C61EB0201EB
:105220002D2202E0220504D52B228DF80420012234
:1052300003E0E20701D02022F7E7904659E00A2177
:1052400002E010220DE010214FF0000A00910BE067
:1052500010224FF0000A44F004040827009203E0F3
:1052600008224FF0000A0092C4F30252022A05D02D
:1052700059F804CB0021032A08D009E009F10701FD
:1052800021F00702F2E802C1914605E01FFA8CFC0A
:10529000042A01D10CF0FF0C4FF00008220728D59A
:1052A000702806D0009B83F0100353EA0A0305D050
:1052B0000EE040228DF80420012208E05CEA0102A1
:1052C00006D030228DF804208DF805000222904689
:1052D000009B83F0080353EA0A030AD15CEA010247
:1052E00001D1620705D530228DF804204FF0010866
:1052F0007F1E582804D034A003900EA802900DE021
:1053000036A0F9E753466046009AFCF72CFC844629
:105310000398825C0298401E029002705CEA0100D1
:10532000F0D1029806A9081A00F1200A600702D5F8
:1053300024F4803400E00127574502DDA7EB0A0082
:1053400000E0002000EB0A01009005984144401A5B
:105350000590E00306D45B462146179A059800F0B5
:10536000B3F90544002706E001A85A46C05D179925
:1053700090476D1C7F1C4745F6DBE0030CD55B4670
:105380002146179A059800F09FF9054404E0302063
:105390005A46179990476D1C0099481E00900029A5
:1053A000F5DC08E0029802995A460078491C0291FF
:1053B000179990476D1CBAF10001AAF1010AF1DCBE
:1053C00065E10000092801003031323334353637C9
:1053D0003839616263646566000000003031323341
:1053E00034353637383941424344454600000000E1
:1053F00000F058F90544761C307800287FF4ECADB5
:1054000019B02846BDE8F08F620700D4062709F1DD
:10541000070222F0070CFCE80223E14603F00048F3
:105420005FEA080C02D00FF2702C0DE05FEA045C1A
:1054300002D50FF2682C07E05FEAC47C02D00FF2BD
:10544000602C01E0AFF2700C4FF0FF3823F0004306
:10545000CDF850C065280CD006DC452809D0462878
:105460001DD047283DD13DE0662818D067287ED161
:1054700038E00021112F01DB112000E0781CCDE97C
:10548000000106A90EA8FFF7E5FCDDE90F010E9A61
:1054900003910021009207F1010A04914DE04FF0C1
:1054A00000400097CDE9011006A90EA8FFF7D2FC35
:1054B000DDE90F0203920E9B11990022DDF80CA08A
:1054C0000093049211B9791C00EB010AB7EB0A00B2
:1054D00004D4C0F1FF3007F1010A0490AAEB0700E1
:1054E000019044E0012F00DA01270021112F01DD96
:1054F000112000E03846CDE9000106A90EA8FFF70B
:10550000A9FCDDE90F010E9A03910021049100929C
:10551000BA4621070CD40399514500DA8A46BAF1FC
:10552000010F05DD009AAAF10101515C302908D074
:10553000B84202DA10F1040F06DA0121CDE90110B8
:1055400015E0AAF10101E9E7002805DC049901440E
:105550000491AAEB000102E0411C514500DD8A469E
:105560000499401A401C01904FF00040029020071F
:1055700004D40198504501DBCDF8048000208DF85B
:105580004F0002980DF14F07B0F1004F25D02B20AE
:105590000E9002984FF0020800280CDA4042029068
:1055A0002D200E9007E00A210298FCF7C6FA303150
:1055B000029007F8011DB8F10001A8F10108F2DC22
:1055C00002980028EFD1791E0E980870307800F00C
:1055D000200040F0450007F8020D12A8C01B00F1A2
:1055E00007081498007800B1012000EB0A01019827
:1055F00001EBE07105984144401A401E0590E0031C
:1056000006D45B462146179A059800F05DF80544DC
:105610001498007818B15A46179990476D1CE0030A
:1056200024D55B462146179A059800F04DF80544AD
:105630001CE00498002807DBDDE90301884203DD54
:105640000098405C179901E0179930205A4690471E
:10565000049805F10105401C04900198401E01903A
:1056600004D12E205A46179990476D1CBAF10001BB
:10567000AAF1010ADDDC05E017F8010B5A4617997B
:1056800090476D1CB8F10001A8F10108F4DC5B46FD
:105690002146179A0598ABE62D0000002B0000006C
:1056A000200000002DE9F041044600251E46174663
:1056B000880404D405E039462020B0476D1C641EE0
:1056C000F9D52846BDE8F0812DE9F04104460025D2
:1056D0001E469046C80301D5302700E020278804E5
:1056E00004D505E041463846B0476D1C641EF9D527
:1056F0002846BDE8F0810A68531C0B6010707047A3
:105700002DE9F04124480469844200D10024002C92
:1057100040D0FDF761FDE168401A2189884239D9FE
:10572000E179A0791D4E814224D3012804D9607902
:10573000BDE8F04100F036B830780B2815D1164896
:1057400018308568854200D10025B07938B9FDF759
:105750002FF920B11DB16988686801F0C6FA0027E9
:10576000B771284600F0EEFB77712046BDE8F041A6
:1057700000F0BCBB6079307009A02168FFF7D0FA57
:105780002179206801F0B1FAFDF726FDE060E079AB
:10579000401CE071BDE8F08178010020000000208D
:1057A00025730A0038B50446FEF75CFB01461B4A28
:1057B0001BA0FFF7B5FA21461BA0FFF7B1FA1DA009
:1057C000FFF7AEFA112C28D800F0FAF81A48417801
:1057D00042F21070052920D2DFE801F00307070725
:1057E0001300BDE8384001F033B9009005230E22C4
:1057F000012112A000F0B6FFBDE83840002001F002
:1058000089B9009005230E2201210CA000F0AAFF07
:10581000BDE83840032001F07DB938BD9589000806
:1058200025732025733A2000636964203D20256498
:10583000000000000A00000000000020434950530F
:105840004855540008B5FEF70DFB0146094A0AA069
:10585000FFF766FA0AA0FFF763FA0AA0FFF760FAFB
:105860004FF4FA6000900A230122002106A000F004
:1058700079FF08BDA889000825732025733A200008
:10588000000000000A0000004154000030B583B061
:105890000446FFF7C3FA05460020CDE900000246A2
:1058A00021466846FCF75DFA2846FFF7CDFADDE9A8
:1058B000000103B030BD00002DE9F043ADF51B7DC4
:1058C000002485A8FEF772FB29484068C0F34F26E4
:1058D000C0F308080025274F4FF400790DE04A4631
:1058E00005A9E019FDF702FC4A4605A985A8FEF7BF
:1058F0006FFB04F500746D1CADB2B542EFD3B8F187
:10590000000F09D0424605A9E019FDF7EFFB42461A
:1059100005A985A8FEF75CFB01A985A8FEF720FB79
:1059200013491022083101A8FBF7CBFC88B1FEF720
:1059300099FA0146104A11A0FFF7F2F911A0FFF7FA
:10594000EFF915A0FFF7ECF900200DF51B7DBDE880
:10595000F083FEF787FA0146074A08A0FFF7E0F94F
:105960000EA0FFF7DDF90CA0FFF7DAF90120ECE754
:105970008804002000F00108A48C0008257320256D
:10598000733A20006D643520636865636B2065722F
:10599000726F7221000000000A0000006D64352063
:1059A000636865636B206F6B0000000010B5FDF746
:1059B00013F8002803D1BDE81040FDF741B810BD31
:1059C0002DE9F0410F4E3069002801D13661766132
:1059D00034692569002710E0206928B161690861F0
:1059E000D4E9041048612761206808B1FFF7C0F9C5
:1059F0002046FFF7BDF92C462569B442ECD1BDE83D
:105A0000F0810000780100202DE9F0410646114F99
:105A1000B868002801D1BF60FF60BC68A56814E0C9
:105A20002078B0420FD1A06830B1E1688860D4E935
:105A30000210C8600020A060606808B1FFF798F904
:105A40002046FFF795F92C46A568BC42E8D1BDE891
:105A5000F08100009001002010B50478303C0D4921
:105A60000869884200D1002020B140790D2801D179
:105A700000F05EFA084951F82400002808D00022FE
:105A8000427051F82410E0B20969BDE8104008479F
:105A900010BD0000780100201C0000202DE9F0431B
:105AA000CFB00D46DFF8A081D8F80040FEF7DAF954
:105AB0000146664A66A0FFF733F92A4666A02168C8
:105AC000FFF72EF969A0FFF72BF9002D4CD000202D
:105AD00084F83A00208760644FF4967104A8FBF7BD
:105AE0009CFB63A12068FBF7AFFB61A12068FBF77B
:105AF000ABFB0546A07A01F003F902462B465DA1F7
:105B000004A8FFF71DF95DA104A8FBF791FB5EA1B6
:105B100004A8FBF78DFB04A86168FBF789FB2089CB
:105B200050280CD05AA104A8FBF782FB228959A166
:105B300001A8FFF705F901A904A8FBF779FB56A115
:105B400004A8FBF775FB55A104A8FBF771FB5AA14C
:105B500004A8FBF76DFB00260020E16959B1084657
:105B6000FBF79AFB86B223E00021204600F0E0FF1D
:105B70004FB0BDE8F083616919B904F10C016161AE
:105B8000A1616569AF6804F10C090FE008B1761CEA
:105B9000B6B22868FBF780FB06446868FBF77CFB1D
:105BA0003044401C86B201203D46AF684D45EDD1E2
:105BB00004A8FBF771FB04A9084432464BA1FFF788
:105BC000BFF835A104A8FBF733FBE16919B104A8BC
:105BD000FBF72EFB20E00020616919B904F10C01EC
:105BE0006161A1616569AE680C3413E018B145A12B
:105BF00004A8FBF71DFB04A82968FBF719FB42A1C9
:105C000004A8FBF715FB04A86968FBF711FB01204A
:105C10003546AE68A542E9D1FEF724F901460B4AA4
:105C20000BA0FFF77DF804A938A0FFF779F80FA0C3
:105C3000FFF776F804A8FBF72FFB82B204A9D8F887
:105C40000400FDF76FF893E7240000209F8A000806
:105C500025732025733A20007265713A25732072EE
:105C60006573756C743A2564000000000A0000003A
:105C70002F00000025732025730000002048545495
:105C8000502F312E310D0A00486F73743A200000F6
:105C90003A000000256400000D0A0000436F6E6E9C
:105CA000656374696F6E3A204B6565702D416C6950
:105CB00076650D0A00000000436F6E74656E742DEA
:105CC000547970653A206170706C69636174696FB2
:105CD0006E2F782D7777772D666F726D2D75726CBC
:105CE000656E636F6465640D0A000000436F6E7437
:105CF000656E742D4C656E6774683A2025640D0AD4
:105D000000000000260000003D0000007265717573
:105D10006573740A2573000030B503464FF6FF70B3
:105D20004AF201040DE013F8012B50400022C50790
:105D300002D084EA500000E04008521C92B2082AC7
:105D4000F5D3491E89B2EED230BD000070B50546CC
:105D5000114C208800F0B2FFA1780D290FD2DFE8A6
:105D600001F00E0709070E070E07070E070E0700C2
:105D70001F2005E008B11D2002E01C2000E01E20CD
:105D8000854207D9491CC8B2A0700C2802D92088C6
:105D9000401C208070BD0000EC0400207CB522A1D6
:105DA000FBF752FA002500950195D0B33D21FBF792
:105DB00069FAB0B3461C306800906846FBF7DAFD1C
:105DC0001C4C2080B088ADF800008DF80250684669
:105DD000FBF7D0FDA070F088ADF800008DF8025000
:105DE0006846FBF7C7FDE0703089ADF800008DF81C
:105DF00002506846FBF7BEFD20717089ADF80000C7
:105E00008DF802506846FBF7B5FD6071B089ADF8BA
:105E100000008DF802506846FBF7ACFDA0712046EB
:105E20007CBDFFE70020FBE753797374656D54690F
:105E30006D653D006804002070B5FDF7CDF9174D84
:105E4000174C6968401AB0F57A7F20D3A079401CBE
:105E5000C0B2A0713B2817D90021A1716079401C04
:105E6000C0B260713B280FD961712079401CC0B26B
:105E70002071172808D92171E078401CC0B2E07069
:105E80001C2801D9FFF762FFFDF7A6F96860FDF74E
:105E9000A3F9A988401A208170BD0000E800002005
:105EA000EC040020F8B5032000F034FE42F210703C
:105EB000009005230E22012109A000F053FC0024CC
:105EC000094D002655F8240028B1467055F82400E5
:105ED000016920468847641CE4B2022CF2D3F8BD65
:105EE00043495053485554001C00002070B50446E7
:105EF000002C15D02069002528B161690861D4E91A
:105F0000041048612561216829B106A0FEF708FF49
:105F10002068FEF72DFF2046FEF72AFF0348057094
:105F200070BD000044656C3A25730A000000002033
:105F300003490869884200D10020FFF7D7BF00005D
:105F40007801002010B50446002C11D0A06830B1B3
:105F5000E1688860D4E90210C8600020A060606831
:105F600008B1FEF705FF2046BDE81040FEF700BF70
:105F700010BD10B504462068FEF7FAFE6068FEF713
:105F8000F7FE2046BDE81040FEF7F2BE0120704744
:105F900010B50D4C2068002814D0FDF763FF0146B2
:105FA0000A4A0BA0FEF7BCFE206801680AA0FEF7B3
:105FB000B7FE0BA0FEF7B4FE2068BDE8104000213C
:105FC00000F0B6BD10BD000024000020A98A000822
:105FD00025732025733A20007265713A25730000FD
:105FE0000A00000030B58BB0174C0022402120463B
:105FF000FEF7F2F9154D00212846FCF787FA2846EE
:10600000FCF792FA201D0090114840680190002191
:1060100002916015039004918020059006910791EC
:1060200020200890000209900A9169462846FCF752
:106030000DFB012240212046FEF7CEF90121284622
:10604000FCF764FA0BB030BD003801405800024044
:10605000DC00002070B53C260024054D04E005EB73
:10606000C420FDF73FF8641CB442F8DB70BD0000AB
:1060700000F0010870B504460D46FDF7F3FE014639
:106080000A4A0BA0FEF74CFE21460BA0FEF748FE85
:106090000CA0FEF745FE0C480269002A04D02946F0
:1060A0002046BDE87040104770BD00008889000898
:1060B00025732025733A20006576656E74203D2097
:1060C000256400000A0000000000002070B58AB0BE
:1060D00004460D46164628224B496846FBF784F8CD
:1060E000FDF7C0FE484A01460C3A48A0FEF718FEEC
:1060F000214648A0FEF714FE49A0FEF711FE022C2F
:106100001FD0012C44D0002C58D0042C17D1E8B259
:10611000444C002855D00025012863D0FDF7A2FE8D
:10612000394A01460C3A39A0FEF7FAFD3EA0FEF7C7
:10613000F7FD3BA0FEF7F4FDFDF794FF25700AB0D4
:1061400070BD05B32A7A29783CA0FEF7E9FD45A089
:10615000FEF7E6FD00240BE0686850F82400FBF72A
:10616000BDFC02460B4641A0FEF7DAFD641CE4B21A
:106170006878A042F0D83FA0FEF7D2FD012130465A
:10618000FEF70CFADBE700213046FEF707FAD6E708
:106190000C20FEF71BFE0446002CD0D0287820707F
:1061A000287A20720A206070C4F804D03146204654
:1061B000FEF7C2FA2046FEF7DBFDC0E7FDF752FF0F
:1061C000BDE7FDF74FFE104A01460C3A0FA0FEF75F
:1061D000A7FD29A0FEF7A4FD11A0FEF7A1FD012057
:1061E0002070ACE7FDF73EFE074A01460C3A07A0D7
:1061F000FEF796FD25A0FEF793FD09A0FEF790FDA2
:10620000FDF730FF25709AE7F48C000825732025F0
:10621000733A20006576656E74203D202564000089
:106220000A000000840000204F54415F5354415441
:1062300055535F4641494C45440000007365742046
:1062400073656E736F72203A6D6574686F64203D7C
:106250002025642C20746172676574203D202564BC
:106260000A00000056616C75653A5B0025302E34DB
:10627000662C00005D0A00004F54415F53544154A6
:1062800055535F5354415254000000004F54415F36
:106290005354415455535F535543434553530000A2
:1062A00070B5064600240A4D304655F83410FAF70A
:1062B000CBFF30B105EBC400416830468847012070
:1062C00070BD641CE4B2052CEED3002070BD00004C
:1062D000500100202DE9F04107461F4EF0680028CC
:1062E00001D1F6603661F468E56831E039466068EE
:1062F000FAF7AAFF50B3FDF7B5FD0146174A18A0FB
:10630000FEF70EFD394618A0FEF70AFD19A0FEF7AC
:1063100007FD19A0616800F0A7F90A220021FBF728
:10632000F1FA0146154A022052689047E06830B100
:106330002169C860D4E9031008610020E06060684A
:1063400008B1FEF715FD2046FEF712FD2C46E56864
:10635000B442CBD1BDE8F08154040020118B000879
:1063600025732025733A200064656C2C20716E3DE6
:10637000257300000A000000434E3D002C00002061
:1063800070B50546FCF7FCF900243420FCF77CF9D5
:106390002846FCF77FF9042803D0641CE4B20A2CD9
:1063A000F3D3BDE87040FCF7B5B910B50346084615
:1063B00000241946FAF718FF204610BD2DE9F041D8
:1063C00006460C461746FCF7DBF93420FCF75CF96F
:1063D00074B3BD082AE04FF0000116D107F00303A3
:1063E000012B03D0022B01D0032B17D15B1E002BF6
:1063F00014DBE05C0143012B01DD090201E0D80060
:1064000081405B1E002BF4DA08E00323E05C0843C4
:1064100001025B1E012BF9DA20780143241D30466E
:10642000FCF780F9042800D1361D6D1E002DD2DC4A
:10643000BDE8F041FCF76EB913B5012269460220B0
:10644000FDF706F800981CBD2DE9F047ADF54E7D2F
:1064500080460E4617461D466420FEF7B7FC0446EC
:10646000200012D015B3FDF739FD8146FDF73AFD46
:106470008246FDF7F7FCCDE901A9024643463BA160
:1064800020460096FEF75CFC1DE0FDF7EBFC0146A4
:10649000404A41A0FEF744FC41A0FEF741FC42A067
:1064A000FEF73EFC0DF54E7DBDE8F087FDF716FDCD
:1064B0008146FDF717FDCDE90009334642463BA171
:1064C0002046FEF73DFC2046FAF7E6FE0646384633
:1064D000FAF7E2FE3044C01D86B2234632463AA1A6
:1064E00004A80097FEF72CFC2046FEF741FC0DF1B6
:1064F00016003146FFF710FCC3B2020A37A1CCA840
:10650000FEF71EFCCCA904A8FAF792FE2DB31420C6
:10651000FEF75CFC04462000C4D004A8FAF7BCFED9
:1065200080B2608000212170A160FEF74FFC6060A6
:1065300078B1628804A9FAF757FE2B48C16809B9F7
:10654000C0600061E0600169CC60016921610461A3
:10655000A8E72046FEF70CFCA4E704A8FAF79CFE87
:10656000224A81B204A8126890479BE7514E3D250C
:10657000733B53543D25643B434E3D25643B50578C
:106580003D25733B4D4E3D25733B466C61673D3168
:106590003B000000D88A000825732025733A2000AC
:1065A0006E6F206D656D21000A00000053543D257B
:1065B000643B434E3D25643B50573D25733B4D4E58
:1065C0003D25733B000000002323253034642573F0
:1065D00043503D26262573262600000025303278BC
:1065E000253032780D0A0000540400202C000020D1
:1065F00070B50FA1FAF728FEB8B10EA1FAF724FE84
:1066000098B1851C0BA12846FAF71EFE68B1441B01
:10661000601CFEF7DBFB0646224629463046FAF7A9
:10662000E3FD00203055304670BD002070BD0000F5
:1066300043503D00262600000320704710B5034656
:10664000084AD068002801D1D2601261D068C168C0
:1066500004E004689C4204D00846C1689042F8D126
:10666000002010BD7404002070B5024608460024C6
:106670001146FAF7E9FD98B33D21FAF703FE78B326
:10668000451C3B212846FAF7FDFD28B13B21284651
:10669000FAF7F8FD044614E026212846FAF7F2FD41
:1066A00028B126212846FAF7EDFD044609E02C2101
:1066B0002846FAF7E7FD20B12C212846FAF7E2FD3B
:1066C00004466CB1641B601CFEF780FB0646224644
:1066D00029463046FAF788FD00203055304670BD17
:1066E000FFE70020FBE7000038B50C4C207B0028BA
:1066F00012D0FCF771FDA169401A42F21071884274
:106700000AD94810012300901522194604A000F070
:1067100029F8FCF761FDA06138BD000000000020F1
:1067200043474E53494E460038B50C4C607800281C
:1067300013D0FCF751FD6169401A4EF66021884282
:106740000BD94FF4FA60012300900C22194604A0E3
:1067500000F008F8FCF740FD606138BD0000002043
:10676000435351002DE9F047DDF8208081460D4666
:1067700016461F461820FEF729FB0446200029D0A4
:1067800035B14846FAF788FD401D207112A505E095
:106790004846FAF781FD801C207110A52079FEF78C
:1067A00015FB206020B14B462A460DA1FEF7C8FA22
:1067B0006671A7710020E071A4F80880E0600A48C3
:1067C000016909B900614061206141690C61416959
:1067D00061614461BDE8F08741542B000000000076
:1067E000257325730D000000780100201FB50949AD
:1067F0000948FCF793FD4FF4165002900020ADF8C5
:106800000400ADF80000ADF8020003906946FCF703
:106810002FFD1FBDF5680008A60100202DE9F047F7
:10682000DFF8B8A0DFF8B8800027AAF11C06A8F2AC
:1068300006293EE00020FDF785FBB9F80010294845
:106840000D5CB9F8040038B1491CC1F30801A9F87E
:106850000010401EA9F804000120FDF773FBF07939
:10686000D0B1307A5AF820401CB3A088411CA180D6
:10687000A1680D54A088618888421AD1F7716369B4
:106880006288307AA1689847A068FEF771FAA7601D
:106890006780A780BDE8F087707B411CC9B2717327
:1068A00008F80050802900D377730A2D06D03E2DBA
:1068B00004D0B9F804000028BCD1EBE7707B0228B3
:1068C00003D198F800100D2906D008F8007004488C
:1068D00001F008F87773DDE77773DBE71C00002031
:1068E000A6030020A6010020002801D0FCF7A8B8CC
:1068F000FCF7FCB802498A88104488807047000081
:10690000A001002070B504460D46FDF7ABFA014624
:10691000274A28A0FEF704FA214628A0FEF700FA2D
:1069200029A0FEF7FDF929484FF4FA61062C3DD263
:10693000DFE804F0030D3C3C17268078002835D1B1
:10694000BDE8704000231A462148FDF709BC807855
:1069500000282BD0BDE87040012300221C48FDF721
:10696000FFBBFBF729FF0446D4E90301FDF7A8FBB1
:10697000FBF75AFFD4E90301BDE8704001F0D4BB36
:10698000E8B2042806D0032809D0BDE870400320EF
:10699000FDF7CABBBDE870400120FDF7C5BB022072
:1069A000FDF7C2FBBDE87040FBF70ABF70BD0000F9
:1069B000658C000825732025733A20006576656E86
:1069C00074203D20256400000A00000038000020EB
:1069D000E96800080E480BA101600E4941600EA154
:1069E000816002460E49D1600EA101610F495161DB
:1069F0000FA181611149D16111A1016211461348B2
:106A0000486270472B5245434549564500000000F7
:106A100050010020F17D0008434C4F5345440000D5
:106A2000595A00084445414354000000A55E00083F
:106A3000504F57455220444F574E000045740008B0
:106A40002B4346554E3A2031000000008D7400085B
:106A500010B50A4901200871002000F05BF8FEF72C
:106A6000AFFF00210846FCF7A6FB0023BDE810405D
:106A70001A4640F2DC510248FDF772BB00000020CC
:106A8000856A000810B5FDF7EDF90146084A09A02E
:106A9000FEF746F909A0FEF743F909A0FEF740F911
:106AA000084900200871BDE810400121FCF783BBB4
:106AB000E889000825732025733A200000000000B3
:106AC0000A0000000000002008B501200090FDF73A
:106AD000C9F90146094A0AA0FEF722F90AA0FEF701
